{
  "contractName": "Exchange",
  "abi": [
    {
      "inputs": [
        {
          "internalType": "address",
          "name": "_feeAcount",
          "type": "address"
        },
        {
          "internalType": "uint256",
          "name": "_feePercent",
          "type": "uint256"
        }
      ],
      "stateMutability": "nonpayable",
      "type": "constructor"
    },
    {
      "anonymous": false,
      "inputs": [
        {
          "indexed": false,
          "internalType": "uint256",
          "name": "id",
          "type": "uint256"
        },
        {
          "indexed": false,
          "internalType": "address",
          "name": "user",
          "type": "address"
        },
        {
          "indexed": false,
          "internalType": "address",
          "name": "tokenGet",
          "type": "address"
        },
        {
          "indexed": false,
          "internalType": "uint256",
          "name": "amountGet",
          "type": "uint256"
        },
        {
          "indexed": false,
          "internalType": "address",
          "name": "tokenGive",
          "type": "address"
        },
        {
          "indexed": false,
          "internalType": "uint256",
          "name": "amountGive",
          "type": "uint256"
        },
        {
          "indexed": false,
          "internalType": "uint256",
          "name": "timestamp",
          "type": "uint256"
        }
      ],
      "name": "CancelOrder",
      "type": "event"
    },
    {
      "anonymous": false,
      "inputs": [
        {
          "indexed": false,
          "internalType": "address",
          "name": "token",
          "type": "address"
        },
        {
          "indexed": false,
          "internalType": "address",
          "name": "user",
          "type": "address"
        },
        {
          "indexed": false,
          "internalType": "uint256",
          "name": "amount",
          "type": "uint256"
        },
        {
          "indexed": false,
          "internalType": "uint256",
          "name": "balance",
          "type": "uint256"
        }
      ],
      "name": "Deposit",
      "type": "event"
    },
    {
      "anonymous": false,
      "inputs": [
        {
          "indexed": false,
          "internalType": "uint256",
          "name": "id",
          "type": "uint256"
        },
        {
          "indexed": false,
          "internalType": "address",
          "name": "user",
          "type": "address"
        },
        {
          "indexed": false,
          "internalType": "address",
          "name": "tokenGet",
          "type": "address"
        },
        {
          "indexed": false,
          "internalType": "uint256",
          "name": "amountGet",
          "type": "uint256"
        },
        {
          "indexed": false,
          "internalType": "address",
          "name": "tokenGive",
          "type": "address"
        },
        {
          "indexed": false,
          "internalType": "uint256",
          "name": "amountGive",
          "type": "uint256"
        },
        {
          "indexed": false,
          "internalType": "uint256",
          "name": "timestamp",
          "type": "uint256"
        }
      ],
      "name": "Order",
      "type": "event"
    },
    {
      "anonymous": false,
      "inputs": [
        {
          "indexed": false,
          "internalType": "uint256",
          "name": "id",
          "type": "uint256"
        },
        {
          "indexed": false,
          "internalType": "address",
          "name": "user",
          "type": "address"
        },
        {
          "indexed": false,
          "internalType": "address",
          "name": "tokenGet",
          "type": "address"
        },
        {
          "indexed": false,
          "internalType": "uint256",
          "name": "amountGet",
          "type": "uint256"
        },
        {
          "indexed": false,
          "internalType": "address",
          "name": "tokenGive",
          "type": "address"
        },
        {
          "indexed": false,
          "internalType": "uint256",
          "name": "amountGive",
          "type": "uint256"
        },
        {
          "indexed": false,
          "internalType": "uint256",
          "name": "timestamp",
          "type": "uint256"
        }
      ],
      "name": "Trade",
      "type": "event"
    },
    {
      "anonymous": false,
      "inputs": [
        {
          "indexed": false,
          "internalType": "address",
          "name": "token",
          "type": "address"
        },
        {
          "indexed": false,
          "internalType": "address",
          "name": "user",
          "type": "address"
        },
        {
          "indexed": false,
          "internalType": "uint256",
          "name": "amount",
          "type": "uint256"
        },
        {
          "indexed": false,
          "internalType": "uint256",
          "name": "balance",
          "type": "uint256"
        }
      ],
      "name": "WithDraw",
      "type": "event"
    },
    {
      "inputs": [],
      "name": "feeAccount",
      "outputs": [
        {
          "internalType": "address",
          "name": "",
          "type": "address"
        }
      ],
      "stateMutability": "view",
      "type": "function",
      "constant": true
    },
    {
      "inputs": [],
      "name": "feePercent",
      "outputs": [
        {
          "internalType": "uint256",
          "name": "",
          "type": "uint256"
        }
      ],
      "stateMutability": "view",
      "type": "function",
      "constant": true
    },
    {
      "inputs": [
        {
          "internalType": "uint256",
          "name": "",
          "type": "uint256"
        }
      ],
      "name": "orderCancel",
      "outputs": [
        {
          "internalType": "bool",
          "name": "",
          "type": "bool"
        }
      ],
      "stateMutability": "view",
      "type": "function",
      "constant": true
    },
    {
      "inputs": [],
      "name": "orderCount",
      "outputs": [
        {
          "internalType": "uint256",
          "name": "",
          "type": "uint256"
        }
      ],
      "stateMutability": "view",
      "type": "function",
      "constant": true
    },
    {
      "inputs": [
        {
          "internalType": "uint256",
          "name": "",
          "type": "uint256"
        }
      ],
      "name": "orderFill",
      "outputs": [
        {
          "internalType": "bool",
          "name": "",
          "type": "bool"
        }
      ],
      "stateMutability": "view",
      "type": "function",
      "constant": true
    },
    {
      "inputs": [
        {
          "internalType": "uint256",
          "name": "",
          "type": "uint256"
        }
      ],
      "name": "orders",
      "outputs": [
        {
          "internalType": "uint256",
          "name": "id",
          "type": "uint256"
        },
        {
          "internalType": "address",
          "name": "user",
          "type": "address"
        },
        {
          "internalType": "address",
          "name": "tokenGet",
          "type": "address"
        },
        {
          "internalType": "uint256",
          "name": "amountGet",
          "type": "uint256"
        },
        {
          "internalType": "address",
          "name": "tokenGive",
          "type": "address"
        },
        {
          "internalType": "uint256",
          "name": "amountGive",
          "type": "uint256"
        },
        {
          "internalType": "uint256",
          "name": "timestamp",
          "type": "uint256"
        }
      ],
      "stateMutability": "view",
      "type": "function",
      "constant": true
    },
    {
      "inputs": [
        {
          "internalType": "address",
          "name": "",
          "type": "address"
        },
        {
          "internalType": "address",
          "name": "",
          "type": "address"
        }
      ],
      "name": "tokens",
      "outputs": [
        {
          "internalType": "uint256",
          "name": "",
          "type": "uint256"
        }
      ],
      "stateMutability": "view",
      "type": "function",
      "constant": true
    },
    {
      "inputs": [],
      "name": "depositEther",
      "outputs": [],
      "stateMutability": "payable",
      "type": "function",
      "payable": true
    },
    {
      "inputs": [
        {
          "internalType": "address",
          "name": "_token",
          "type": "address"
        },
        {
          "internalType": "uint256",
          "name": "_amount",
          "type": "uint256"
        }
      ],
      "name": "depositToken",
      "outputs": [],
      "stateMutability": "nonpayable",
      "type": "function"
    },
    {
      "inputs": [
        {
          "internalType": "uint256",
          "name": "_amount",
          "type": "uint256"
        }
      ],
      "name": "withdrawEther",
      "outputs": [],
      "stateMutability": "nonpayable",
      "type": "function"
    },
    {
      "inputs": [
        {
          "internalType": "address",
          "name": "_token",
          "type": "address"
        },
        {
          "internalType": "uint256",
          "name": "_amount",
          "type": "uint256"
        }
      ],
      "name": "withdrawToken",
      "outputs": [],
      "stateMutability": "nonpayable",
      "type": "function"
    },
    {
      "inputs": [
        {
          "internalType": "address",
          "name": "_address",
          "type": "address"
        },
        {
          "internalType": "address",
          "name": "_user",
          "type": "address"
        }
      ],
      "name": "balanceOf",
      "outputs": [
        {
          "internalType": "uint256",
          "name": "",
          "type": "uint256"
        }
      ],
      "stateMutability": "view",
      "type": "function",
      "constant": true
    },
    {
      "inputs": [
        {
          "internalType": "address",
          "name": "_tokenGet",
          "type": "address"
        },
        {
          "internalType": "uint256",
          "name": "_amountGet",
          "type": "uint256"
        },
        {
          "internalType": "address",
          "name": "_tokenGive",
          "type": "address"
        },
        {
          "internalType": "uint256",
          "name": "_amountGive",
          "type": "uint256"
        }
      ],
      "name": "makeOrder",
      "outputs": [],
      "stateMutability": "nonpayable",
      "type": "function"
    },
    {
      "inputs": [
        {
          "internalType": "uint256",
          "name": "_id",
          "type": "uint256"
        }
      ],
      "name": "cancelOrder",
      "outputs": [],
      "stateMutability": "nonpayable",
      "type": "function"
    },
    {
      "inputs": [
        {
          "internalType": "uint256",
          "name": "_id",
          "type": "uint256"
        }
      ],
      "name": "fillOrder",
      "outputs": [],
      "stateMutability": "nonpayable",
      "type": "function"
    }
  ],
  "bytecode": "0x60806040523480156200001157600080fd5b50604051620024de380380620024de83398181016040528101906200003791906200012b565b816000806101000a81548173ffffffffffffffffffffffffffffffffffffffff021916908373ffffffffffffffffffffffffffffffffffffffff16021790555080600181905550505062000172565b600080fd5b600073ffffffffffffffffffffffffffffffffffffffff82169050919050565b6000620000b8826200008b565b9050919050565b620000ca81620000ab565b8114620000d657600080fd5b50565b600081519050620000ea81620000bf565b92915050565b6000819050919050565b6200010581620000f0565b81146200011157600080fd5b50565b6000815190506200012581620000fa565b92915050565b6000806040838503121562000145576200014462000086565b5b60006200015585828601620000d9565b9250506020620001688582860162000114565b9150509250929050565b61235c80620001826000396000f3fe6080604052600436106100e85760003560e01c80637fd6f15c1161008a5780639e281a98116100595780639e281a98146102bf578063a85c38ef146102e8578063c348ac651461032b578063f7888aec14610368576100e8565b80637fd6f15c1461022457806398ea5fca1461024f5780639a5c90aa146102595780639bc896f914610282576100e8565b8063508493bc116100c6578063508493bc1461016a578063514fcac7146101a757806365e17c9d146101d057806367b830ad146101fb576100e8565b80632453ffa8146100ed578063338b5dea146101185780633bed33ce14610141575b600080fd5b3480156100f957600080fd5b506101026103a5565b60405161010f9190611cc1565b60405180910390f35b34801561012457600080fd5b5061013f600480360381019061013a9190611d6b565b6103ab565b005b34801561014d57600080fd5b5061016860048036038101906101639190611dab565b610639565b005b34801561017657600080fd5b50610191600480360381019061018c9190611dd8565b6108d5565b60405161019e9190611cc1565b60405180910390f35b3480156101b357600080fd5b506101ce60048036038101906101c99190611dab565b6108fa565b005b3480156101dc57600080fd5b506101e5610add565b6040516101f29190611e27565b60405180910390f35b34801561020757600080fd5b50610222600480360381019061021d9190611dab565b610b01565b005b34801561023057600080fd5b506102396113c2565b6040516102469190611cc1565b60405180910390f35b6102576113c8565b005b34801561026557600080fd5b50610280600480360381019061027b9190611e42565b611593565b005b34801561028e57600080fd5b506102a960048036038101906102a49190611dab565b6117d2565b6040516102b69190611ec4565b60405180910390f35b3480156102cb57600080fd5b506102e660048036038101906102e19190611d6b565b6117f2565b005b3480156102f457600080fd5b5061030f600480360381019061030a9190611dab565b611b07565b6040516103229796959493929190611edf565b60405180910390f35b34801561033757600080fd5b50610352600480360381019061034d9190611dab565b611ba9565b60405161035f9190611ec4565b60405180910390f35b34801561037457600080fd5b5061038f600480360381019061038a9190611dd8565b611bc9565b60405161039c9190611cc1565b60405180910390f35b60065481565b600073ffffffffffffffffffffffffffffffffffffffff168273ffffffffffffffffffffffffffffffffffffffff16036103e457600080fd5b8173ffffffffffffffffffffffffffffffffffffffff166323b872dd3330846040518463ffffffff1660e01b815260040161042193929190611f4e565b6020604051808303816000875af1158015610440573d6000803e3d6000fd5b505050506040513d601f19601f820116820180604052508101906104649190611fb1565b61046d57600080fd5b6104fc81600260008573ffffffffffffffffffffffffffffffffffffffff1673ffffffffffffffffffffffffffffffffffffffff16815260200190815260200160002060003373ffffffffffffffffffffffffffffffffffffffff1673ffffffffffffffffffffffffffffffffffffffff16815260200190815260200160002054611c5090919063ffffffff16565b600260008473ffffffffffffffffffffffffffffffffffffffff1673ffffffffffffffffffffffffffffffffffffffff16815260200190815260200160002060003373ffffffffffffffffffffffffffffffffffffffff1673ffffffffffffffffffffffffffffffffffffffff168152602001908152602001600020819055507fdcbc1c05240f31ff3ad067ef1ee35ce4997762752e3a095284754544f4c709d7823383600260008773ffffffffffffffffffffffffffffffffffffffff1673ffffffffffffffffffffffffffffffffffffffff16815260200190815260200160002060003373ffffffffffffffffffffffffffffffffffffffff1673ffffffffffffffffffffffffffffffffffffffff1681526020019081526020016000205460405161062d9493929190611fde565b60405180910390a15050565b80600260008073ffffffffffffffffffffffffffffffffffffffff1673ffffffffffffffffffffffffffffffffffffffff16815260200190815260200160002060003373ffffffffffffffffffffffffffffffffffffffff1673ffffffffffffffffffffffffffffffffffffffff1681526020019081526020016000205410156106c257600080fd5b61075181600260008073ffffffffffffffffffffffffffffffffffffffff1673ffffffffffffffffffffffffffffffffffffffff16815260200190815260200160002060003373ffffffffffffffffffffffffffffffffffffffff1673ffffffffffffffffffffffffffffffffffffffff16815260200190815260200160002054611c6690919063ffffffff16565b600260008073ffffffffffffffffffffffffffffffffffffffff1673ffffffffffffffffffffffffffffffffffffffff16815260200190815260200160002060003373ffffffffffffffffffffffffffffffffffffffff1673ffffffffffffffffffffffffffffffffffffffff168152602001908152602001600020819055503373ffffffffffffffffffffffffffffffffffffffff166108fc829081150290604051600060405180830381858888f19350505050158015610817573d6000803e3d6000fd5b507f2ffdfede8e3142dc22c86f615731d1d79115cf0652b6880e40eb6ef76ed86da260003383600260008073ffffffffffffffffffffffffffffffffffffffff1673ffffffffffffffffffffffffffffffffffffffff16815260200190815260200160002060003373ffffffffffffffffffffffffffffffffffffffff1673ffffffffffffffffffffffffffffffffffffffff168152602001908152602001600020546040516108ca9493929190611fde565b60405180910390a150565b6002602052816000526040600020602052806000526040600020600091509150505481565b6000600360008381526020019081526020016000206040518060e0016040529081600082015481526020016001820160009054906101000a900473ffffffffffffffffffffffffffffffffffffffff1673ffffffffffffffffffffffffffffffffffffffff1673ffffffffffffffffffffffffffffffffffffffff1681526020016002820160009054906101000a900473ffffffffffffffffffffffffffffffffffffffff1673ffffffffffffffffffffffffffffffffffffffff1673ffffffffffffffffffffffffffffffffffffffff168152602001600382015481526020016004820160009054906101000a900473ffffffffffffffffffffffffffffffffffffffff1673ffffffffffffffffffffffffffffffffffffffff1673ffffffffffffffffffffffffffffffffffffffff16815260200160058201548152602001600682015481525050905081816000015114610a5657600080fd5b60016004600084815260200190815260200160002060006101000a81548160ff0219169083151502179055507f8ad5af334aaf597f15dd597da702fda54fdf739d22e2c11afc21612c49cd38ec8160000151338360400151846060015185608001518660a0015142604051610ad19796959493929190611edf565b60405180910390a15050565b60008054906101000a900473ffffffffffffffffffffffffffffffffffffffff1681565b6000600360008381526020019081526020016000206040518060e0016040529081600082015481526020016001820160009054906101000a900473ffffffffffffffffffffffffffffffffffffffff1673ffffffffffffffffffffffffffffffffffffffff1673ffffffffffffffffffffffffffffffffffffffff1681526020016002820160009054906101000a900473ffffffffffffffffffffffffffffffffffffffff1673ffffffffffffffffffffffffffffffffffffffff1673ffffffffffffffffffffffffffffffffffffffff168152602001600382015481526020016004820160009054906101000a900473ffffffffffffffffffffffffffffffffffffffff1673ffffffffffffffffffffffffffffffffffffffff1673ffffffffffffffffffffffffffffffffffffffff16815260200160058201548152602001600682015481525050905081816000015114610c5d57600080fd5b6000610c8b6064610c7d6001548560600151611c7c90919063ffffffff16565b611c9290919063ffffffff16565b90508160a00151610ca483608001518460200151611bc9565b1015610ce5576040517f08c379a0000000000000000000000000000000000000000000000000000000008152600401610cdc906120a6565b60405180910390fd5b610cfc818360600151611c5090919063ffffffff16565b610d0e83604001518460200151611bc9565b1015610d4f576040517f08c379a0000000000000000000000000000000000000000000000000000000008152600401610d4690612138565b60405180910390fd5b610df8610d69828460600151611c5090919063ffffffff16565b60026000856040015173ffffffffffffffffffffffffffffffffffffffff1673ffffffffffffffffffffffffffffffffffffffff16815260200190815260200160002060003373ffffffffffffffffffffffffffffffffffffffff1673ffffffffffffffffffffffffffffffffffffffff16815260200190815260200160002054611c6690919063ffffffff16565b60026000846040015173ffffffffffffffffffffffffffffffffffffffff1673ffffffffffffffffffffffffffffffffffffffff16815260200190815260200160002060003373ffffffffffffffffffffffffffffffffffffffff1673ffffffffffffffffffffffffffffffffffffffff16815260200190815260200160002081905550610f308160026000856040015173ffffffffffffffffffffffffffffffffffffffff1673ffffffffffffffffffffffffffffffffffffffff16815260200190815260200160002060008060009054906101000a900473ffffffffffffffffffffffffffffffffffffffff1673ffffffffffffffffffffffffffffffffffffffff1673ffffffffffffffffffffffffffffffffffffffff16815260200190815260200160002054611c5090919063ffffffff16565b60026000846040015173ffffffffffffffffffffffffffffffffffffffff1673ffffffffffffffffffffffffffffffffffffffff16815260200190815260200160002060008060009054906101000a900473ffffffffffffffffffffffffffffffffffffffff1673ffffffffffffffffffffffffffffffffffffffff1673ffffffffffffffffffffffffffffffffffffffff16815260200190815260200160002081905550611070826060015160026000856040015173ffffffffffffffffffffffffffffffffffffffff1673ffffffffffffffffffffffffffffffffffffffff1681526020019081526020016000206000856020015173ffffffffffffffffffffffffffffffffffffffff1673ffffffffffffffffffffffffffffffffffffffff16815260200190815260200160002054611c5090919063ffffffff16565b60026000846040015173ffffffffffffffffffffffffffffffffffffffff1673ffffffffffffffffffffffffffffffffffffffff1681526020019081526020016000206000846020015173ffffffffffffffffffffffffffffffffffffffff1673ffffffffffffffffffffffffffffffffffffffff1681526020019081526020016000208190555061118f8260a0015160026000856080015173ffffffffffffffffffffffffffffffffffffffff1673ffffffffffffffffffffffffffffffffffffffff16815260200190815260200160002060003373ffffffffffffffffffffffffffffffffffffffff1673ffffffffffffffffffffffffffffffffffffffff16815260200190815260200160002054611c5090919063ffffffff16565b60026000846080015173ffffffffffffffffffffffffffffffffffffffff1673ffffffffffffffffffffffffffffffffffffffff16815260200190815260200160002060003373ffffffffffffffffffffffffffffffffffffffff1673ffffffffffffffffffffffffffffffffffffffff168152602001908152602001600020819055506112ae8260a0015160026000856080015173ffffffffffffffffffffffffffffffffffffffff1673ffffffffffffffffffffffffffffffffffffffff1681526020019081526020016000206000856020015173ffffffffffffffffffffffffffffffffffffffff1673ffffffffffffffffffffffffffffffffffffffff16815260200190815260200160002054611c6690919063ffffffff16565b60026000846080015173ffffffffffffffffffffffffffffffffffffffff1673ffffffffffffffffffffffffffffffffffffffff1681526020019081526020016000206000846020015173ffffffffffffffffffffffffffffffffffffffff1673ffffffffffffffffffffffffffffffffffffffff1681526020019081526020016000208190555060016005600085815260200190815260200160002060006101000a81548160ff0219169083151502179055507faba0fc968824c4949185cfdd55a197a4d41616a98cc2d97fd34224ebcdf76744826000015183602001518460400151856060015186608001518760a00151426040516113b59796959493929190611edf565b60405180910390a1505050565b60015481565b61145734600260008073ffffffffffffffffffffffffffffffffffffffff1673ffffffffffffffffffffffffffffffffffffffff16815260200190815260200160002060003373ffffffffffffffffffffffffffffffffffffffff1673ffffffffffffffffffffffffffffffffffffffff16815260200190815260200160002054611c5090919063ffffffff16565b600260008073ffffffffffffffffffffffffffffffffffffffff1673ffffffffffffffffffffffffffffffffffffffff16815260200190815260200160002060003373ffffffffffffffffffffffffffffffffffffffff1673ffffffffffffffffffffffffffffffffffffffff168152602001908152602001600020819055507fdcbc1c05240f31ff3ad067ef1ee35ce4997762752e3a095284754544f4c709d760003334600260008073ffffffffffffffffffffffffffffffffffffffff1673ffffffffffffffffffffffffffffffffffffffff16815260200190815260200160002060003373ffffffffffffffffffffffffffffffffffffffff1673ffffffffffffffffffffffffffffffffffffffff168152602001908152602001600020546040516115899493929190611fde565b60405180910390a1565b8061159e8333611bc9565b10156115df576040517f08c379a00000000000000000000000000000000000000000000000000000000081526004016115d6906121a4565b60405180910390fd5b6115f56001600654611c5090919063ffffffff16565b6006819055506040518060e0016040528060065481526020013373ffffffffffffffffffffffffffffffffffffffff1681526020018573ffffffffffffffffffffffffffffffffffffffff1681526020018481526020018373ffffffffffffffffffffffffffffffffffffffff168152602001828152602001428152506003600060065481526020019081526020016000206000820151816000015560208201518160010160006101000a81548173ffffffffffffffffffffffffffffffffffffffff021916908373ffffffffffffffffffffffffffffffffffffffff16021790555060408201518160020160006101000a81548173ffffffffffffffffffffffffffffffffffffffff021916908373ffffffffffffffffffffffffffffffffffffffff1602179055506060820151816003015560808201518160040160006101000a81548173ffffffffffffffffffffffffffffffffffffffff021916908373ffffffffffffffffffffffffffffffffffffffff16021790555060a0820151816005015560c082015181600601559050507f9d33853d43e3607b4cc01fdc78338ff2dca6fef7db9232dae6d3eb55fbc3b1096006543386868686426040516117c49796959493929190611edf565b60405180910390a150505050565b60046020528060005260406000206000915054906101000a900460ff1681565b600073ffffffffffffffffffffffffffffffffffffffff168273ffffffffffffffffffffffffffffffffffffffff160361182b57600080fd5b80600260008473ffffffffffffffffffffffffffffffffffffffff1673ffffffffffffffffffffffffffffffffffffffff16815260200190815260200160002060003373ffffffffffffffffffffffffffffffffffffffff1673ffffffffffffffffffffffffffffffffffffffff1681526020019081526020016000205410156118b457600080fd5b61194381600260008573ffffffffffffffffffffffffffffffffffffffff1673ffffffffffffffffffffffffffffffffffffffff16815260200190815260200160002060003373ffffffffffffffffffffffffffffffffffffffff1673ffffffffffffffffffffffffffffffffffffffff16815260200190815260200160002054611c6690919063ffffffff16565b600260008473ffffffffffffffffffffffffffffffffffffffff1673ffffffffffffffffffffffffffffffffffffffff16815260200190815260200160002060003373ffffffffffffffffffffffffffffffffffffffff1673ffffffffffffffffffffffffffffffffffffffff168152602001908152602001600020819055508173ffffffffffffffffffffffffffffffffffffffff1663a9059cbb33836040518363ffffffff1660e01b81526004016119fe9291906121c4565b6020604051808303816000875af1158015611a1d573d6000803e3d6000fd5b505050506040513d601f19601f82011682018060405250810190611a419190611fb1565b611a4a57600080fd5b7f2ffdfede8e3142dc22c86f615731d1d79115cf0652b6880e40eb6ef76ed86da2823383600260008773ffffffffffffffffffffffffffffffffffffffff1673ffffffffffffffffffffffffffffffffffffffff16815260200190815260200160002060003373ffffffffffffffffffffffffffffffffffffffff1673ffffffffffffffffffffffffffffffffffffffff16815260200190815260200160002054604051611afb9493929190611fde565b60405180910390a15050565b60036020528060005260406000206000915090508060000154908060010160009054906101000a900473ffffffffffffffffffffffffffffffffffffffff16908060020160009054906101000a900473ffffffffffffffffffffffffffffffffffffffff16908060030154908060040160009054906101000a900473ffffffffffffffffffffffffffffffffffffffff16908060050154908060060154905087565b60056020528060005260406000206000915054906101000a900460ff1681565b6000600260008473ffffffffffffffffffffffffffffffffffffffff1673ffffffffffffffffffffffffffffffffffffffff16815260200190815260200160002060008373ffffffffffffffffffffffffffffffffffffffff1673ffffffffffffffffffffffffffffffffffffffff16815260200190815260200160002054905092915050565b60008183611c5e919061221c565b905092915050565b60008183611c749190612250565b905092915050565b60008183611c8a9190612284565b905092915050565b60008183611ca091906122f5565b905092915050565b6000819050919050565b611cbb81611ca8565b82525050565b6000602082019050611cd66000830184611cb2565b92915050565b600080fd5b600073ffffffffffffffffffffffffffffffffffffffff82169050919050565b6000611d0c82611ce1565b9050919050565b611d1c81611d01565b8114611d2757600080fd5b50565b600081359050611d3981611d13565b92915050565b611d4881611ca8565b8114611d5357600080fd5b50565b600081359050611d6581611d3f565b92915050565b60008060408385031215611d8257611d81611cdc565b5b6000611d9085828601611d2a565b9250506020611da185828601611d56565b9150509250929050565b600060208284031215611dc157611dc0611cdc565b5b6000611dcf84828501611d56565b91505092915050565b60008060408385031215611def57611dee611cdc565b5b6000611dfd85828601611d2a565b9250506020611e0e85828601611d2a565b9150509250929050565b611e2181611d01565b82525050565b6000602082019050611e3c6000830184611e18565b92915050565b60008060008060808587031215611e5c57611e5b611cdc565b5b6000611e6a87828801611d2a565b9450506020611e7b87828801611d56565b9350506040611e8c87828801611d2a565b9250506060611e9d87828801611d56565b91505092959194509250565b60008115159050919050565b611ebe81611ea9565b82525050565b6000602082019050611ed96000830184611eb5565b92915050565b600060e082019050611ef4600083018a611cb2565b611f016020830189611e18565b611f0e6040830188611e18565b611f1b6060830187611cb2565b611f286080830186611e18565b611f3560a0830185611cb2565b611f4260c0830184611cb2565b98975050505050505050565b6000606082019050611f636000830186611e18565b611f706020830185611e18565b611f7d6040830184611cb2565b949350505050565b611f8e81611ea9565b8114611f9957600080fd5b50565b600081519050611fab81611f85565b92915050565b600060208284031215611fc757611fc6611cdc565b5b6000611fd584828501611f9c565b91505092915050565b6000608082019050611ff36000830187611e18565b6120006020830186611e18565b61200d6040830185611cb2565b61201a6060830184611cb2565b95945050505050565b600082825260208201905092915050565b7fe5889be5bbbae8aea2e58d95e697b6e794a8e688b7e79a84e4bd99e9a29de4b860008201527f8de8b6b300000000000000000000000000000000000000000000000000000000602082015250565b6000612090602483612023565b915061209b82612034565b604082019050919050565b600060208201905081810360008301526120bf81612083565b9050919050565b7fe5a1abe58585e8aea2e58d95e697b6e794a8e688b7e79a84e4bd99e9a29de4b860008201527f8de8b6b300000000000000000000000000000000000000000000000000000000602082015250565b6000612122602483612023565b915061212d826120c6565b604082019050919050565b6000602082019050818103600083015261215181612115565b9050919050565b7fe5889be5bbbae8aea2e58d95e697b6e4bd99e9a29de4b88de8b6b30000000000600082015250565b600061218e601b83612023565b915061219982612158565b602082019050919050565b600060208201905081810360008301526121bd81612181565b9050919050565b60006040820190506121d96000830185611e18565b6121e66020830184611cb2565b9392505050565b7f4e487b7100000000000000000000000000000000000000000000000000000000600052601160045260246000fd5b600061222782611ca8565b915061223283611ca8565b925082820190508082111561224a576122496121ed565b5b92915050565b600061225b82611ca8565b915061226683611ca8565b925082820390508181111561227e5761227d6121ed565b5b92915050565b600061228f82611ca8565b915061229a83611ca8565b92508282026122a881611ca8565b915082820484148315176122bf576122be6121ed565b5b5092915050565b7f4e487b7100000000000000000000000000000000000000000000000000000000600052601260045260246000fd5b600061230082611ca8565b915061230b83611ca8565b92508261231b5761231a6122c6565b5b82820490509291505056fea2646970667358221220e72ef88da9ae3222495daff87fe5c95e30e31de578641e40ead303d728d4891a64736f6c63430008120033",
  "immutableReferences": {},
  "source": "// SPDX-License-Identifier: GPL-3.0\n\npragma solidity >=0.4.16 < 0.9.0;\nimport \"@openzeppelin/contracts/utils/math/SafeMath.sol\";\nimport \"./DanToken.sol\";\n\ncontract Exchange {\n    using SafeMath for uint256;\n    // \n    address public feeAccount;\n    uint256 public feePercent; // \n    address constant ETHER = address(0);\n\n    mapping(address => mapping(address => uint256)) public tokens;\n    /**\n        {\n            \"\" : {\n                \"userA\": 100,\n                \"userB\": 200,\n            },\n            \"DWT\" : {\n                \"userA\": 200,\n                \"userB\": 300,\n            },\n            \"\" : {\n                \"userA\": 300,\n                \"userB\": 400,\n            },\n\n        }\n     */\n\n    // \n    struct _Order {\n        uint256 id;\n        address user;\n        address tokenGet;\n        uint256 amountGet;\n        address tokenGive;\n        uint256 amountGive;\n\n        uint256 timestamp;\n    }\n\n    mapping(uint256 => _Order) public orders;\n    mapping(uint256 => bool) public orderCancel;\n    mapping(uint256 => bool) public orderFill;\n    uint256 public orderCount;\n\n    constructor(address _feeAcount, uint256 _feePercent) {\n        feeAccount = _feeAcount;\n        feePercent = _feePercent;\n    }\n    event Deposit(address token, address user, uint256 amount, uint256 balance);\n    event WithDraw(address token, address user, uint256 amount, uint256 balance);\n    event Order (\n        uint256 id,\n        address user,\n        address tokenGet,\n        uint256 amountGet,\n        address tokenGive,\n        uint256 amountGive,\n        uint256 timestamp\n    );\n    event CancelOrder (\n        uint256 id,\n        address user,\n        address tokenGet,\n        uint256 amountGet,\n        address tokenGive,\n        uint256 amountGive,\n        uint256 timestamp\n    );\n    // \n    event Trade (\n        uint256 id,\n        address user,\n        address tokenGet,\n        uint256 amountGet,\n        address tokenGive,\n        uint256 amountGive,\n        uint256 timestamp\n    );\n        \n\n    // \n    // \n    function depositEther() payable public {\n        //msg.sender\n        //msg.value\n        tokens[ETHER][msg.sender] = tokens[ETHER][msg.sender].add(msg.value);\n        emit Deposit(ETHER, msg.sender, msg.value, tokens[ETHER][msg.sender]);\n    }\n    // \n    function depositToken(address _token, uint256 _amount) public {\n        // \n        require(_token != ETHER);\n        require(DanToken(_token).transferFrom(msg.sender, address(this), _amount));\n        tokens[_token][msg.sender] = tokens[_token][msg.sender].add(_amount);\n\n        emit Deposit(_token, msg.sender, _amount, tokens[_token][msg.sender]);\n    }\n\n    // \n    function withdrawEther(uint256 _amount) public {\n        require(tokens[ETHER][msg.sender] >= _amount);\n        tokens[ETHER][msg.sender] = tokens[ETHER][msg.sender].sub(_amount);\n        payable(msg.sender).transfer(_amount);\n        emit WithDraw(ETHER, msg.sender, _amount, tokens[ETHER][msg.sender]);\n    }\n\n    //  DWT\n    function withdrawToken(address _token , uint256 _amount) public {\n         require(_token != ETHER);\n         require(tokens[_token][msg.sender] >= _amount);\n         tokens[_token][msg.sender] = tokens[_token][msg.sender].sub(_amount);\n         require(DanToken(_token).transfer(msg.sender, _amount));\n         emit WithDraw(_token, msg.sender, _amount, tokens[_token][msg.sender]);\n    }\n    // \n    function balanceOf(address _address, address _user) public view returns(uint256) {\n        return tokens[_address][_user];\n    }\n\n    // makeOrder\n    function makeOrder(\n        address _tokenGet,\n        uint256 _amountGet, \n        address _tokenGive, \n        uint256 _amountGive\n    ) public {\n        require(balanceOf(_tokenGive, msg.sender) >= _amountGive, unicode\"\");\n\n        orderCount = orderCount.add(1);\n        orders[orderCount] = _Order(\n            orderCount, \n            msg.sender,\n            _tokenGet,\n            _amountGet,\n            _tokenGive,\n            _amountGive,\n            block.timestamp\n        );\n\n        // \n        emit Order(\n            orderCount, \n            msg.sender,\n            _tokenGet,\n            _amountGet,\n            _tokenGive,\n            _amountGive,\n            block.timestamp\n        );\n    }\n\n    // cancelOrder\n    function cancelOrder(uint256 _id) public {\n        _Order memory myOrder = orders[_id];\n        require(myOrder.id == _id);\n        orderCancel[_id] = true;\n        emit CancelOrder(\n            myOrder.id, \n            msg.sender, \n            myOrder.tokenGet, \n            myOrder.amountGet, \n            myOrder.tokenGive, \n            myOrder.amountGive,\n            block.timestamp\n        );\n    }\n\n    // fillOrder\n    function fillOrder(uint256 _id) public {\n        _Order memory myOrder = orders[_id];\n        require(myOrder.id == _id);\n        //   && \n        /***\n             xiaoming , makeOder\n            100 DWT => 1 ether\n\n            xiaoming  1 ether\n            xiaoming  100 DWT\n\n            msg.sender  fillOrder\n            msg.sender  1 ether\n            msg.sender  100 DWT\n        \n         */\n        uint256 feeAmount = myOrder.amountGet.mul(feePercent).div(100);\n        require(balanceOf(myOrder.tokenGive, myOrder.user) >= myOrder.amountGive, unicode\"\");\n        require(balanceOf(myOrder.tokenGet, myOrder.user) >= myOrder.amountGet.add(feeAmount), unicode\"\");\n\n        tokens[myOrder.tokenGet][msg.sender] = tokens[myOrder.tokenGet][msg.sender].sub(myOrder.amountGet.add(feeAmount));\n\n        tokens[myOrder.tokenGet][feeAccount] = tokens[myOrder.tokenGet][feeAccount].add(feeAmount);\n\n        tokens[myOrder.tokenGet][myOrder.user] = tokens[myOrder.tokenGet][myOrder.user].add(myOrder.amountGet);\n\n        tokens[myOrder.tokenGive][msg.sender] = tokens[myOrder.tokenGive][msg.sender].add(myOrder.amountGive);\n        tokens[myOrder.tokenGive][myOrder.user] = tokens[myOrder.tokenGive][myOrder.user].sub(myOrder.amountGive);\n\n        orderFill[_id] = true;\n        emit Trade(\n            myOrder.id, \n            myOrder.user, \n            myOrder.tokenGet, \n            myOrder.amountGet, \n            myOrder.tokenGive, \n            myOrder.amountGive,\n            block.timestamp\n        );\n    }\n\n}",
  "sourcePath": "/Users/zidanzhang/work/hy/test/web3/bili/demo1/myContracts/myapp/contracts/Exchange.sol",
  "compiler": {
    "name": "solc",
    "version": "0.8.18+commit.87f61d96.Emscripten.clang"
  },
  "schemaVersion": "3.4.12",
  "updatedAt": "2023-03-02T14:41:06.116Z",
  "networkType": "ethereum",
  "devdoc": {
    "kind": "dev",
    "methods": {},
    "version": 1
  },
  "userdoc": {
    "kind": "user",
    "methods": {},
    "version": 1
  }
}