{
  "contractName": "StudentStorage",
  "abi": [
    {
      "inputs": [],
      "name": "age",
      "outputs": [
        {
          "internalType": "uint256",
          "name": "",
          "type": "uint256"
        }
      ],
      "stateMutability": "view",
      "type": "function",
      "constant": true
    },
    {
      "inputs": [],
      "name": "name",
      "outputs": [
        {
          "internalType": "string",
          "name": "",
          "type": "string"
        }
      ],
      "stateMutability": "view",
      "type": "function",
      "constant": true
    },
    {
      "inputs": [
        {
          "internalType": "string",
          "name": "_name",
          "type": "string"
        },
        {
          "internalType": "uint256",
          "name": "_age",
          "type": "uint256"
        }
      ],
      "name": "setData",
      "outputs": [],
      "stateMutability": "nonpayable",
      "type": "function"
    },
    {
      "inputs": [],
      "name": "getData",
      "outputs": [
        {
          "internalType": "string",
          "name": "",
          "type": "string"
        },
        {
          "internalType": "uint256",
          "name": "",
          "type": "uint256"
        }
      ],
      "stateMutability": "view",
      "type": "function",
      "constant": true
    }
  ],
  "bytecode": "0x608060405234801561001057600080fd5b5061080f806100206000396000f3fe608060405234801561001057600080fd5b506004361061004c5760003560e01c806306fdde0314610051578063262a9dff1461006f5780633bc5de301461008d578063af22068e146100ac575b600080fd5b6100596100c8565b60405161006691906102a4565b60405180910390f35b610077610156565b60405161008491906102df565b60405180910390f35b61009561015c565b6040516100a39291906102fa565b60405180910390f35b6100c660048036038101906100c1919061049f565b6101f9565b005b600180546100d59061052a565b80601f01602080910402602001604051908101604052809291908181526020018280546101019061052a565b801561014e5780601f106101235761010080835404028352916020019161014e565b820191906000526020600020905b81548152906001019060200180831161013157829003601f168201915b505050505081565b60005481565b6060600060016000548180546101719061052a565b80601f016020809104026020016040519081016040528092919081815260200182805461019d9061052a565b80156101ea5780601f106101bf576101008083540402835291602001916101ea565b820191906000526020600020905b8154815290600101906020018083116101cd57829003601f168201915b50505050509150915091509091565b81600190816102089190610707565b50806000819055505050565b600081519050919050565b600082825260208201905092915050565b60005b8381101561024e578082015181840152602081019050610233565b60008484015250505050565b6000601f19601f8301169050919050565b600061027682610214565b610280818561021f565b9350610290818560208601610230565b6102998161025a565b840191505092915050565b600060208201905081810360008301526102be818461026b565b905092915050565b6000819050919050565b6102d9816102c6565b82525050565b60006020820190506102f460008301846102d0565b92915050565b60006040820190508181036000830152610314818561026b565b905061032360208301846102d0565b9392505050565b6000604051905090565b600080fd5b600080fd5b600080fd5b600080fd5b7f4e487b7100000000000000000000000000000000000000000000000000000000600052604160045260246000fd5b6103808261025a565b810181811067ffffffffffffffff8211171561039f5761039e610348565b5b80604052505050565b60006103b261032a565b90506103be8282610377565b919050565b600067ffffffffffffffff8211156103de576103dd610348565b5b6103e78261025a565b9050602081019050919050565b82818337600083830152505050565b6000610416610411846103c3565b6103a8565b90508281526020810184848401111561043257610431610343565b5b61043d8482856103f4565b509392505050565b600082601f83011261045a5761045961033e565b5b813561046a848260208601610403565b91505092915050565b61047c816102c6565b811461048757600080fd5b50565b60008135905061049981610473565b92915050565b600080604083850312156104b6576104b5610334565b5b600083013567ffffffffffffffff8111156104d4576104d3610339565b5b6104e085828601610445565b92505060206104f18582860161048a565b9150509250929050565b7f4e487b7100000000000000000000000000000000000000000000000000000000600052602260045260246000fd5b6000600282049050600182168061054257607f821691505b602082108103610555576105546104fb565b5b50919050565b60008190508160005260206000209050919050565b60006020601f8301049050919050565b600082821b905092915050565b6000600883026105bd7fffffffffffffffffffffffffffffffffffffffffffffffffffffffffffffffff82610580565b6105c78683610580565b95508019841693508086168417925050509392505050565b6000819050919050565b60006106046105ff6105fa846102c6565b6105df565b6102c6565b9050919050565b6000819050919050565b61061e836105e9565b61063261062a8261060b565b84845461058d565b825550505050565b600090565b61064761063a565b610652818484610615565b505050565b5b818110156106765761066b60008261063f565b600181019050610658565b5050565b601f8211156106bb5761068c8161055b565b61069584610570565b810160208510156106a4578190505b6106b86106b085610570565b830182610657565b50505b505050565b600082821c905092915050565b60006106de600019846008026106c0565b1980831691505092915050565b60006106f783836106cd565b9150826002028217905092915050565b61071082610214565b67ffffffffffffffff81111561072957610728610348565b5b610733825461052a565b61073e82828561067a565b600060209050601f831160018114610771576000841561075f578287015190505b61076985826106eb565b8655506107d1565b601f19841661077f8661055b565b60005b828110156107a757848901518255600182019150602085019450602081019050610782565b868310156107c457848901516107c0601f8916826106cd565b8355505b6001600288020188555050505b50505050505056fea2646970667358221220c776b3f1b910d285d8734843cf37409fd8370c333694dffcc671b43ed11b08f064736f6c63430008120033",
  "immutableReferences": {},
  "source": "// SPDX-License-Identifier: GPL-3.0\n\npragma solidity >=0.4.16 < 0.9.0;\n\ncontract StudentStorage {\n    uint public age;\n    string public name;\n    \n    function setData(string memory _name, uint _age) public {\n        name = _name;\n        age = _age;\n    }\n\n    function getData() public view returns(string memory, uint) {\n        return (name, age);\n    }\n}\n",
  "sourcePath": "/Users/zidanzhang/work/hy/test/web3/bili/demo1/myContracts/myapp/contracts/StudentStorage.sol",
  "compiler": {
    "name": "solc",
    "version": "0.8.18+commit.87f61d96.Emscripten.clang"
  },
  "schemaVersion": "3.4.12",
  "updatedAt": "2023-03-02T14:41:05.931Z",
  "networkType": "ethereum",
  "devdoc": {
    "kind": "dev",
    "methods": {},
    "version": 1
  },
  "userdoc": {
    "kind": "user",
    "methods": {},
    "version": 1
  }
}