{
  "contractName": "StudentListStorage",
  "abi": [
    {
      "inputs": [
        {
          "internalType": "uint256",
          "name": "",
          "type": "uint256"
        }
      ],
      "name": "StudentList",
      "outputs": [
        {
          "internalType": "uint256",
          "name": "id",
          "type": "uint256"
        },
        {
          "internalType": "string",
          "name": "name",
          "type": "string"
        },
        {
          "internalType": "uint256",
          "name": "age",
          "type": "uint256"
        },
        {
          "internalType": "address",
          "name": "account",
          "type": "address"
        }
      ],
      "stateMutability": "view",
      "type": "function",
      "constant": true
    },
    {
      "inputs": [
        {
          "internalType": "string",
          "name": "_name",
          "type": "string"
        },
        {
          "internalType": "uint256",
          "name": "_age",
          "type": "uint256"
        }
      ],
      "name": "addList",
      "outputs": [
        {
          "internalType": "uint256",
          "name": "",
          "type": "uint256"
        }
      ],
      "stateMutability": "nonpayable",
      "type": "function"
    },
    {
      "inputs": [],
      "name": "getList",
      "outputs": [
        {
          "components": [
            {
              "internalType": "uint256",
              "name": "id",
              "type": "uint256"
            },
            {
              "internalType": "string",
              "name": "name",
              "type": "string"
            },
            {
              "internalType": "uint256",
              "name": "age",
              "type": "uint256"
            },
            {
              "internalType": "address",
              "name": "account",
              "type": "address"
            }
          ],
          "internalType": "struct StudentListStorage.Student[]",
          "name": "",
          "type": "tuple[]"
        }
      ],
      "stateMutability": "view",
      "type": "function",
      "constant": true
    }
  ],
  "bytecode": "0x608060405234801561001057600080fd5b50610c85806100206000396000f3fe608060405234801561001057600080fd5b50600436106100415760003560e01c80636b29d35f14610046578063942b765a1461007657806395bbc64e14610094575b600080fd5b610060600480360381019061005b91906105a0565b6100c7565b60405161006d919061060b565b60405180910390f35b61007e6101c8565b60405161008b919061081a565b60405180910390f35b6100ae60048036038101906100a9919061083c565b610328565b6040516100be94939291906108c2565b60405180910390f35b600080600080549050905060006001826100e1919061093d565b9050600060405180608001604052808381526020018781526020018681526020013373ffffffffffffffffffffffffffffffffffffffff1681525090806001815401808255809150506001900390600052602060002090600402016000909190919091506000820151816000015560208201518160010190816101649190610b7d565b506040820151816002015560608201518160030160006101000a81548173ffffffffffffffffffffffffffffffffffffffff021916908373ffffffffffffffffffffffffffffffffffffffff16021790555050506000805490509250505092915050565b6060600080805480602002602001604051908101604052809291908181526020016000905b8282101561031b57838290600052602060002090600402016040518060800160405290816000820154815260200160018201805461022a906109a0565b80601f0160208091040260200160405190810160405280929190818152602001828054610256906109a0565b80156102a35780601f10610278576101008083540402835291602001916102a3565b820191906000526020600020905b81548152906001019060200180831161028657829003601f168201915b50505050508152602001600282015481526020016003820160009054906101000a900473ffffffffffffffffffffffffffffffffffffffff1673ffffffffffffffffffffffffffffffffffffffff1673ffffffffffffffffffffffffffffffffffffffff1681525050815260200190600101906101ed565b5050505090508091505090565b6000818154811061033857600080fd5b9060005260206000209060040201600091509050806000015490806001018054610361906109a0565b80601f016020809104026020016040519081016040528092919081815260200182805461038d906109a0565b80156103da5780601f106103af576101008083540402835291602001916103da565b820191906000526020600020905b8154815290600101906020018083116103bd57829003601f168201915b5050505050908060020154908060030160009054906101000a900473ffffffffffffffffffffffffffffffffffffffff16905084565b6000604051905090565b600080fd5b600080fd5b600080fd5b600080fd5b6000601f19601f8301169050919050565b7f4e487b7100000000000000000000000000000000000000000000000000000000600052604160045260246000fd5b6104778261042e565b810181811067ffffffffffffffff821117156104965761049561043f565b5b80604052505050565b60006104a9610410565b90506104b5828261046e565b919050565b600067ffffffffffffffff8211156104d5576104d461043f565b5b6104de8261042e565b9050602081019050919050565b82818337600083830152505050565b600061050d610508846104ba565b61049f565b90508281526020810184848401111561052957610528610429565b5b6105348482856104eb565b509392505050565b600082601f83011261055157610550610424565b5b81356105618482602086016104fa565b91505092915050565b6000819050919050565b61057d8161056a565b811461058857600080fd5b50565b60008135905061059a81610574565b92915050565b600080604083850312156105b7576105b661041a565b5b600083013567ffffffffffffffff8111156105d5576105d461041f565b5b6105e18582860161053c565b92505060206105f28582860161058b565b9150509250929050565b6106058161056a565b82525050565b600060208201905061062060008301846105fc565b92915050565b600081519050919050565b600082825260208201905092915050565b6000819050602082019050919050565b61065b8161056a565b82525050565b600081519050919050565b600082825260208201905092915050565b60005b8381101561069b578082015181840152602081019050610680565b60008484015250505050565b60006106b282610661565b6106bc818561066c565b93506106cc81856020860161067d565b6106d58161042e565b840191505092915050565b600073ffffffffffffffffffffffffffffffffffffffff82169050919050565b600061070b826106e0565b9050919050565b61071b81610700565b82525050565b60006080830160008301516107396000860182610652565b506020830151848203602086015261075182826106a7565b91505060408301516107666040860182610652565b5060608301516107796060860182610712565b508091505092915050565b60006107908383610721565b905092915050565b6000602082019050919050565b60006107b082610626565b6107ba8185610631565b9350836020820285016107cc85610642565b8060005b8581101561080857848403895281516107e98582610784565b94506107f483610798565b925060208a019950506001810190506107d0565b50829750879550505050505092915050565b6000602082019050818103600083015261083481846107a5565b905092915050565b6000602082840312156108525761085161041a565b5b60006108608482850161058b565b91505092915050565b600082825260208201905092915050565b600061088582610661565b61088f8185610869565b935061089f81856020860161067d565b6108a88161042e565b840191505092915050565b6108bc81610700565b82525050565b60006080820190506108d760008301876105fc565b81810360208301526108e9818661087a565b90506108f860408301856105fc565b61090560608301846108b3565b95945050505050565b7f4e487b7100000000000000000000000000000000000000000000000000000000600052601160045260246000fd5b60006109488261056a565b91506109538361056a565b925082820190508082111561096b5761096a61090e565b5b92915050565b7f4e487b7100000000000000000000000000000000000000000000000000000000600052602260045260246000fd5b600060028204905060018216806109b857607f821691505b6020821081036109cb576109ca610971565b5b50919050565b60008190508160005260206000209050919050565b60006020601f8301049050919050565b600082821b905092915050565b600060088302610a337fffffffffffffffffffffffffffffffffffffffffffffffffffffffffffffffff826109f6565b610a3d86836109f6565b95508019841693508086168417925050509392505050565b6000819050919050565b6000610a7a610a75610a708461056a565b610a55565b61056a565b9050919050565b6000819050919050565b610a9483610a5f565b610aa8610aa082610a81565b848454610a03565b825550505050565b600090565b610abd610ab0565b610ac8818484610a8b565b505050565b5b81811015610aec57610ae1600082610ab5565b600181019050610ace565b5050565b601f821115610b3157610b02816109d1565b610b0b846109e6565b81016020851015610b1a578190505b610b2e610b26856109e6565b830182610acd565b50505b505050565b600082821c905092915050565b6000610b5460001984600802610b36565b1980831691505092915050565b6000610b6d8383610b43565b9150826002028217905092915050565b610b8682610661565b67ffffffffffffffff811115610b9f57610b9e61043f565b5b610ba982546109a0565b610bb4828285610af0565b600060209050601f831160018114610be75760008415610bd5578287015190505b610bdf8582610b61565b865550610c47565b601f198416610bf5866109d1565b60005b82811015610c1d57848901518255600182019150602085019450602081019050610bf8565b86831015610c3a5784890151610c36601f891682610b43565b8355505b6001600288020188555050505b50505050505056fea2646970667358221220d7345dc0112f90ebc7a93119ee3d0c50fabb6ed34d39692ff04fb951ccdc6ece64736f6c63430008120033",
  "immutableReferences": {},
  "source": "// SPDX-License-Identifier: GPL-3.0\n\npragma solidity >=0.4.16 < 0.9.0;\n\ncontract StudentListStorage {\n\n    struct Student {\n        uint id;\n        string name;\n        uint age;\n        address account;\n    }\n    // \n\n    Student[] public StudentList;\n    \n    function addList(string memory _name, uint _age) public returns (uint) {\n        uint count = StudentList.length;\n        uint index = count + 1;\n        StudentList.push(Student(index, _name, _age, msg.sender));\n        return StudentList.length;\n    }\n\n    function getList() public view returns(Student[] memory) {\n        Student[] memory list = StudentList;\n        return list;    \n    }\n}\n",
  "sourcePath": "/Users/zidanzhang/work/hy/test/web3/bili/demo1/myContracts/myapp/contracts/StudentListStorage.sol",
  "compiler": {
    "name": "solc",
    "version": "0.8.18+commit.87f61d96.Emscripten.clang"
  },
  "schemaVersion": "3.4.12",
  "updatedAt": "2023-03-02T14:41:05.982Z",
  "networkType": "ethereum",
  "devdoc": {
    "kind": "dev",
    "methods": {},
    "version": 1
  },
  "userdoc": {
    "kind": "user",
    "methods": {},
    "version": 1
  }
}