{
  "contractName": "DanToken",
  "abi": [
    {
      "inputs": [],
      "stateMutability": "nonpayable",
      "type": "constructor"
    },
    {
      "anonymous": false,
      "inputs": [
        {
          "indexed": true,
          "internalType": "address",
          "name": "_from",
          "type": "address"
        },
        {
          "indexed": true,
          "internalType": "address",
          "name": "_to",
          "type": "address"
        },
        {
          "indexed": false,
          "internalType": "uint256",
          "name": "_value",
          "type": "uint256"
        }
      ],
      "name": "Transfer",
      "type": "event"
    },
    {
      "inputs": [
        {
          "internalType": "address",
          "name": "",
          "type": "address"
        }
      ],
      "name": "balanceOf",
      "outputs": [
        {
          "internalType": "uint256",
          "name": "",
          "type": "uint256"
        }
      ],
      "stateMutability": "view",
      "type": "function",
      "constant": true
    },
    {
      "inputs": [],
      "name": "decimals",
      "outputs": [
        {
          "internalType": "uint256",
          "name": "",
          "type": "uint256"
        }
      ],
      "stateMutability": "view",
      "type": "function",
      "constant": true
    },
    {
      "inputs": [],
      "name": "name",
      "outputs": [
        {
          "internalType": "string",
          "name": "",
          "type": "string"
        }
      ],
      "stateMutability": "view",
      "type": "function",
      "constant": true
    },
    {
      "inputs": [],
      "name": "symbol",
      "outputs": [
        {
          "internalType": "string",
          "name": "",
          "type": "string"
        }
      ],
      "stateMutability": "view",
      "type": "function",
      "constant": true
    },
    {
      "inputs": [],
      "name": "totalSupply",
      "outputs": [
        {
          "internalType": "uint256",
          "name": "",
          "type": "uint256"
        }
      ],
      "stateMutability": "view",
      "type": "function",
      "constant": true
    },
    {
      "inputs": [
        {
          "internalType": "address",
          "name": "_to",
          "type": "address"
        },
        {
          "internalType": "uint256",
          "name": "_value",
          "type": "uint256"
        }
      ],
      "name": "transfer",
      "outputs": [
        {
          "internalType": "bool",
          "name": "success",
          "type": "bool"
        }
      ],
      "stateMutability": "nonpayable",
      "type": "function"
    }
  ],
  "bytecode": "0x60806040526040518060400160405280600881526020017f44616e546f6b656e000000000000000000000000000000000000000000000000815250600090816200004a919062000392565b506040518060400160405280600381526020017f44575400000000000000000000000000000000000000000000000000000000008152506001908162000091919062000392565b506012600255348015620000a457600080fd5b50600254600a620000b69190620005fc565b620f4240620000c691906200064d565b600381905550600354600460003373ffffffffffffffffffffffffffffffffffffffff1673ffffffffffffffffffffffffffffffffffffffff1681526020019081526020016000208190555062000698565b600081519050919050565b7f4e487b7100000000000000000000000000000000000000000000000000000000600052604160045260246000fd5b7f4e487b7100000000000000000000000000000000000000000000000000000000600052602260045260246000fd5b600060028204905060018216806200019a57607f821691505b602082108103620001b057620001af62000152565b5b50919050565b60008190508160005260206000209050919050565b60006020601f8301049050919050565b600082821b905092915050565b6000600883026200021a7fffffffffffffffffffffffffffffffffffffffffffffffffffffffffffffffff82620001db565b620002268683620001db565b95508019841693508086168417925050509392505050565b6000819050919050565b6000819050919050565b6000620002736200026d62000267846200023e565b62000248565b6200023e565b9050919050565b6000819050919050565b6200028f8362000252565b620002a76200029e826200027a565b848454620001e8565b825550505050565b600090565b620002be620002af565b620002cb81848462000284565b505050565b5b81811015620002f357620002e7600082620002b4565b600181019050620002d1565b5050565b601f82111562000342576200030c81620001b6565b6200031784620001cb565b8101602085101562000327578190505b6200033f6200033685620001cb565b830182620002d0565b50505b505050565b600082821c905092915050565b6000620003676000198460080262000347565b1980831691505092915050565b600062000382838362000354565b9150826002028217905092915050565b6200039d8262000118565b67ffffffffffffffff811115620003b957620003b862000123565b5b620003c5825462000181565b620003d2828285620002f7565b600060209050601f8311600181146200040a5760008415620003f5578287015190505b62000401858262000374565b86555062000471565b601f1984166200041a86620001b6565b60005b8281101562000444578489015182556001820191506020850194506020810190506200041d565b8683101562000464578489015162000460601f89168262000354565b8355505b6001600288020188555050505b505050505050565b7f4e487b7100000000000000000000000000000000000000000000000000000000600052601160045260246000fd5b60008160011c9050919050565b6000808291508390505b60018511156200050757808604811115620004df57620004de62000479565b5b6001851615620004ef5780820291505b8081029050620004ff85620004a8565b9450620004bf565b94509492505050565b600082620005225760019050620005f5565b81620005325760009050620005f5565b81600181146200054b576002811462000556576200058c565b6001915050620005f5565b60ff8411156200056b576200056a62000479565b5b8360020a91508482111562000585576200058462000479565b5b50620005f5565b5060208310610133831016604e8410600b8410161715620005c65782820a905083811115620005c057620005bf62000479565b5b620005f5565b620005d58484846001620004b5565b92509050818404811115620005ef57620005ee62000479565b5b81810290505b9392505050565b600062000609826200023e565b915062000616836200023e565b9250620006457fffffffffffffffffffffffffffffffffffffffffffffffffffffffffffffffff848462000510565b905092915050565b60006200065a826200023e565b915062000667836200023e565b925082820262000677816200023e565b9150828204841483151762000691576200069062000479565b5b5092915050565b61081f80620006a86000396000f3fe608060405234801561001057600080fd5b50600436106100625760003560e01c806306fdde031461006757806318160ddd14610085578063313ce567146100a357806370a08231146100c157806395d89b41146100f1578063a9059cbb1461010f575b600080fd5b61006f61013f565b60405161007c919061056a565b60405180910390f35b61008d6101cd565b60405161009a91906105a5565b60405180910390f35b6100ab6101d3565b6040516100b891906105a5565b60405180910390f35b6100db60048036038101906100d69190610623565b6101d9565b6040516100e891906105a5565b60405180910390f35b6100f96101f1565b604051610106919061056a565b60405180910390f35b6101296004803603810190610124919061067c565b61027f565b60405161013691906106d7565b60405180910390f35b6000805461014c90610721565b80601f016020809104026020016040519081016040528092919081815260200182805461017890610721565b80156101c55780601f1061019a576101008083540402835291602001916101c5565b820191906000526020600020905b8154815290600101906020018083116101a857829003601f168201915b505050505081565b60035481565b60025481565b60046020528060005260406000206000915090505481565b600180546101fe90610721565b80601f016020809104026020016040519081016040528092919081815260200182805461022a90610721565b80156102775780601f1061024c57610100808354040283529160200191610277565b820191906000526020600020905b81548152906001019060200180831161025a57829003601f168201915b505050505081565b60008073ffffffffffffffffffffffffffffffffffffffff168373ffffffffffffffffffffffffffffffffffffffff16036102b957600080fd5b6102c43384846102ce565b6001905092915050565b80600460008573ffffffffffffffffffffffffffffffffffffffff1673ffffffffffffffffffffffffffffffffffffffff16815260200190815260200160002054101561031a57600080fd5b61036c81600460008673ffffffffffffffffffffffffffffffffffffffff1673ffffffffffffffffffffffffffffffffffffffff168152602001908152602001600020546104ae90919063ffffffff16565b600460008573ffffffffffffffffffffffffffffffffffffffff1673ffffffffffffffffffffffffffffffffffffffff1681526020019081526020016000208190555061040181600460008573ffffffffffffffffffffffffffffffffffffffff1673ffffffffffffffffffffffffffffffffffffffff168152602001908152602001600020546104c490919063ffffffff16565b600460008473ffffffffffffffffffffffffffffffffffffffff1673ffffffffffffffffffffffffffffffffffffffff168152602001908152602001600020819055508173ffffffffffffffffffffffffffffffffffffffff168373ffffffffffffffffffffffffffffffffffffffff167fddf252ad1be2c89b69c2b068fc378daa952ba7f163c4a11628f55a4df523b3ef836040516104a191906105a5565b60405180910390a3505050565b600081836104bc9190610781565b905092915050565b600081836104d291906107b5565b905092915050565b600081519050919050565b600082825260208201905092915050565b60005b838110156105145780820151818401526020810190506104f9565b60008484015250505050565b6000601f19601f8301169050919050565b600061053c826104da565b61054681856104e5565b93506105568185602086016104f6565b61055f81610520565b840191505092915050565b600060208201905081810360008301526105848184610531565b905092915050565b6000819050919050565b61059f8161058c565b82525050565b60006020820190506105ba6000830184610596565b92915050565b600080fd5b600073ffffffffffffffffffffffffffffffffffffffff82169050919050565b60006105f0826105c5565b9050919050565b610600816105e5565b811461060b57600080fd5b50565b60008135905061061d816105f7565b92915050565b600060208284031215610639576106386105c0565b5b60006106478482850161060e565b91505092915050565b6106598161058c565b811461066457600080fd5b50565b60008135905061067681610650565b92915050565b60008060408385031215610693576106926105c0565b5b60006106a18582860161060e565b92505060206106b285828601610667565b9150509250929050565b60008115159050919050565b6106d1816106bc565b82525050565b60006020820190506106ec60008301846106c8565b92915050565b7f4e487b7100000000000000000000000000000000000000000000000000000000600052602260045260246000fd5b6000600282049050600182168061073957607f821691505b60208210810361074c5761074b6106f2565b5b50919050565b7f4e487b7100000000000000000000000000000000000000000000000000000000600052601160045260246000fd5b600061078c8261058c565b91506107978361058c565b92508282039050818111156107af576107ae610752565b5b92915050565b60006107c08261058c565b91506107cb8361058c565b92508282019050808211156107e3576107e2610752565b5b9291505056fea264697066735822122080756a95e42f1a083c17e71a057d350c1778d18af5293cda75ec19b0b404645b64736f6c63430008120033",
  "immutableReferences": {},
  "source": "// SPDX-License-Identifier: GPL-3.0\n\npragma solidity >=0.4.16 < 0.9.0;\nimport \"@openzeppelin/contracts/utils/math/SafeMath.sol\";\n\ncontract DanToken {\n    using SafeMath for uint256;\n    string public name = \"DanToken\";\n    string public symbol = \"DWT\";\n\n    uint256 public decimals = 18;\n\n    uint256 public totalSupply;\n\n    mapping(address => uint256) public balanceOf;\n\n\n    constructor () {\n        totalSupply = 1000000 * (10 ** decimals);\n        balanceOf[msg.sender] = totalSupply;\n    }\n\n    event Transfer(address indexed _from, address indexed _to, uint256 _value);\n\n    function transfer(address _to, uint256 _value) public returns (bool success) {\n        require(_to!=address(0));\n        \n        _transfer(msg.sender, _to, _value);\n        return true;\n    }\n\n    function _transfer(address _from, address _to, uint256 _value ) internal {\n        require(balanceOf[_from] >= _value);\n        balanceOf[_from] = balanceOf[_from].sub(_value);\n        balanceOf[_to] = balanceOf[_to].add(_value);\n\n        // \n        emit Transfer(_from, _to, _value);\n    }\n}",
  "sourcePath": "/Users/zidanzhang/work/hy/test/web3/bili/demo1/myContracts/contracts/DanToken.sol",
  "compiler": {
    "name": "solc",
    "version": "0.8.18+commit.87f61d96.Emscripten.clang"
  },
  "schemaVersion": "3.4.12",
  "updatedAt": "2023-02-20T12:30:10.965Z",
  "networkType": "ethereum",
  "devdoc": {
    "kind": "dev",
    "methods": {},
    "version": 1
  },
  "userdoc": {
    "kind": "user",
    "methods": {},
    "version": 1
  }
}