{
  "contractName": "StudentListStorage",
  "abi": [
    {
      "inputs": [
        {
          "internalType": "uint256",
          "name": "",
          "type": "uint256"
        }
      ],
      "name": "StudentList",
      "outputs": [
        {
          "internalType": "uint256",
          "name": "id",
          "type": "uint256"
        },
        {
          "internalType": "string",
          "name": "name",
          "type": "string"
        },
        {
          "internalType": "uint256",
          "name": "age",
          "type": "uint256"
        }
      ],
      "stateMutability": "view",
      "type": "function",
      "constant": true
    },
    {
      "inputs": [
        {
          "internalType": "string",
          "name": "_name",
          "type": "string"
        },
        {
          "internalType": "uint256",
          "name": "_age",
          "type": "uint256"
        }
      ],
      "name": "addList",
      "outputs": [
        {
          "internalType": "uint256",
          "name": "",
          "type": "uint256"
        }
      ],
      "stateMutability": "nonpayable",
      "type": "function"
    },
    {
      "inputs": [],
      "name": "getList",
      "outputs": [
        {
          "components": [
            {
              "internalType": "uint256",
              "name": "id",
              "type": "uint256"
            },
            {
              "internalType": "string",
              "name": "name",
              "type": "string"
            },
            {
              "internalType": "uint256",
              "name": "age",
              "type": "uint256"
            }
          ],
          "internalType": "struct StudentListStorage.Student[]",
          "name": "",
          "type": "tuple[]"
        }
      ],
      "stateMutability": "view",
      "type": "function",
      "constant": true
    }
  ],
  "bytecode": "0x608060405234801561001057600080fd5b50610b34806100206000396000f3fe608060405234801561001057600080fd5b50600436106100415760003560e01c80636b29d35f14610046578063942b765a1461007657806395bbc64e14610094575b600080fd5b610060600480360381019061005b91906104c0565b6100c6565b60405161006d919061052b565b60405180910390f35b61007e610164565b60405161008b91906106e6565b60405180910390f35b6100ae60048036038101906100a99190610708565b61026e565b6040516100bd9392919061077f565b60405180910390f35b600080600080549050905060006001826100e091906107ec565b9050600060405180606001604052808381526020018781526020018681525090806001815401808255809150506001900390600052602060002090600302016000909190919091506000820151816000015560208201518160010190816101479190610a2c565b506040820151816002015550506000805490509250505092915050565b6060600080805480602002602001604051908101604052809291908181526020016000905b828210156102615783829060005260206000209060030201604051806060016040529081600082015481526020016001820180546101c69061084f565b80601f01602080910402602001604051908101604052809291908181526020018280546101f29061084f565b801561023f5780601f106102145761010080835404028352916020019161023f565b820191906000526020600020905b81548152906001019060200180831161022257829003601f168201915b5050505050815260200160028201548152505081526020019060010190610189565b5050505090508091505090565b6000818154811061027e57600080fd5b90600052602060002090600302016000915090508060000154908060010180546102a79061084f565b80601f01602080910402602001604051908101604052809291908181526020018280546102d39061084f565b80156103205780601f106102f557610100808354040283529160200191610320565b820191906000526020600020905b81548152906001019060200180831161030357829003601f168201915b5050505050908060020154905083565b6000604051905090565b600080fd5b600080fd5b600080fd5b600080fd5b6000601f19601f8301169050919050565b7f4e487b7100000000000000000000000000000000000000000000000000000000600052604160045260246000fd5b6103978261034e565b810181811067ffffffffffffffff821117156103b6576103b561035f565b5b80604052505050565b60006103c9610330565b90506103d5828261038e565b919050565b600067ffffffffffffffff8211156103f5576103f461035f565b5b6103fe8261034e565b9050602081019050919050565b82818337600083830152505050565b600061042d610428846103da565b6103bf565b90508281526020810184848401111561044957610448610349565b5b61045484828561040b565b509392505050565b600082601f83011261047157610470610344565b5b813561048184826020860161041a565b91505092915050565b6000819050919050565b61049d8161048a565b81146104a857600080fd5b50565b6000813590506104ba81610494565b92915050565b600080604083850312156104d7576104d661033a565b5b600083013567ffffffffffffffff8111156104f5576104f461033f565b5b6105018582860161045c565b9250506020610512858286016104ab565b9150509250929050565b6105258161048a565b82525050565b6000602082019050610540600083018461051c565b92915050565b600081519050919050565b600082825260208201905092915050565b6000819050602082019050919050565b61057b8161048a565b82525050565b600081519050919050565b600082825260208201905092915050565b60005b838110156105bb5780820151818401526020810190506105a0565b60008484015250505050565b60006105d282610581565b6105dc818561058c565b93506105ec81856020860161059d565b6105f58161034e565b840191505092915050565b60006060830160008301516106186000860182610572565b506020830151848203602086015261063082826105c7565b91505060408301516106456040860182610572565b508091505092915050565b600061065c8383610600565b905092915050565b6000602082019050919050565b600061067c82610546565b6106868185610551565b93508360208202850161069885610562565b8060005b858110156106d457848403895281516106b58582610650565b94506106c083610664565b925060208a0199505060018101905061069c565b50829750879550505050505092915050565b600060208201905081810360008301526107008184610671565b905092915050565b60006020828403121561071e5761071d61033a565b5b600061072c848285016104ab565b91505092915050565b600082825260208201905092915050565b600061075182610581565b61075b8185610735565b935061076b81856020860161059d565b6107748161034e565b840191505092915050565b6000606082019050610794600083018661051c565b81810360208301526107a68185610746565b90506107b5604083018461051c565b949350505050565b7f4e487b7100000000000000000000000000000000000000000000000000000000600052601160045260246000fd5b60006107f78261048a565b91506108028361048a565b925082820190508082111561081a576108196107bd565b5b92915050565b7f4e487b7100000000000000000000000000000000000000000000000000000000600052602260045260246000fd5b6000600282049050600182168061086757607f821691505b60208210810361087a57610879610820565b5b50919050565b60008190508160005260206000209050919050565b60006020601f8301049050919050565b600082821b905092915050565b6000600883026108e27fffffffffffffffffffffffffffffffffffffffffffffffffffffffffffffffff826108a5565b6108ec86836108a5565b95508019841693508086168417925050509392505050565b6000819050919050565b600061092961092461091f8461048a565b610904565b61048a565b9050919050565b6000819050919050565b6109438361090e565b61095761094f82610930565b8484546108b2565b825550505050565b600090565b61096c61095f565b61097781848461093a565b505050565b5b8181101561099b57610990600082610964565b60018101905061097d565b5050565b601f8211156109e0576109b181610880565b6109ba84610895565b810160208510156109c9578190505b6109dd6109d585610895565b83018261097c565b50505b505050565b600082821c905092915050565b6000610a03600019846008026109e5565b1980831691505092915050565b6000610a1c83836109f2565b9150826002028217905092915050565b610a3582610581565b67ffffffffffffffff811115610a4e57610a4d61035f565b5b610a58825461084f565b610a6382828561099f565b600060209050601f831160018114610a965760008415610a84578287015190505b610a8e8582610a10565b865550610af6565b601f198416610aa486610880565b60005b82811015610acc57848901518255600182019150602085019450602081019050610aa7565b86831015610ae95784890151610ae5601f8916826109f2565b8355505b6001600288020188555050505b50505050505056fea2646970667358221220bc7c20d9515a31fb52cf2198d23c0886dc9ef33145cac1d73b828a6096442ff164736f6c63430008120033",
  "immutableReferences": {},
  "source": "// SPDX-License-Identifier: GPL-3.0\n\npragma solidity >=0.4.16 < 0.9.0;\n\ncontract StudentListStorage {\n\n    struct Student {\n        uint id;\n        string name;\n        uint age;\n    }\n    // \n\n    Student[] public StudentList;\n    \n    function addList(string memory _name, uint _age) public returns (uint) {\n        uint count = StudentList.length;\n        uint index = count + 1;\n        StudentList.push(Student(index, _name, _age));\n        return StudentList.length;\n    }\n\n    function getList() public view returns(Student[] memory) {\n        Student[] memory list = StudentList;\n        return list;    \n    }\n}\n",
  "sourcePath": "/Users/zidanzhang/work/hy/test/web3/bili/demo1/kerwinContracts/contracts/StudentListStorage.sol",
  "compiler": {
    "name": "solc",
    "version": "0.8.18+commit.87f61d96.Emscripten.clang"
  },
  "schemaVersion": "3.4.12",
  "updatedAt": "2023-02-19T06:42:44.592Z",
  "networkType": "ethereum",
  "devdoc": {
    "kind": "dev",
    "methods": {},
    "version": 1
  },
  "userdoc": {
    "kind": "user",
    "methods": {},
    "version": 1
  }
}